:100000000C9438000C9442000C9442000C94420072
:100010000C9442000C9442000C9442000C94420058
:100020000C9442000C9442000C9442000C94420048
:100030000C9442000C9442000C9442000C94420038
:100040000C9442000C9442000C9442000C94420028
:100050000C9442000C9442000C9442000C94420018
:100060000C9442000C9442000C9442000C94420008
:1000700011241FBECFEFD4E0DEBFCDBF0E944400ED
:100080000C945B000C9400001ABA17BA8FEF84BB73
:1000900099B386B3811103C0292F220F25BB81306C
:1000A00009F415BA823009F495BB833011F495BB7D
:0A00B000EFCF15BAEDCFF894FFCFA3
:00000001FF
