:100000000C9438000C9442000C9442000C94420072
:100010000C9442000C9442000C9442000C94420058
:100020000C9442000C9442000C9442000C94420048
:100030000C9442000C9442000C9442000C94420038
:100040000C9442000C9442000C9442000C94420028
:100050000C9442000C9442000C9442000C94420018
:100060000C9442000C9442000C9442000C94420008
:1000700011241FBECFEFD4E0DEBFCDBF0E944400ED
:100080000C9469000C94000081B38E7F81BB81B316
:10009000826081BB8FEF8ABB84BB10BC85E089B9CD
:1000A00080E18AB98EE080BD15BA5F9BFECF8CB12E
:1000B00085BB803FC9F79BB381E089278BBB2FE3CA
:1000C0008DE093E0215080409040E1F700C00000B7
:0600D000EBCFF894FFCF16
:00000001FF
