:100000000C9438000C9442000C9442000C94420072
:100010000C9442000C9442000C9442000C94420058
:100020000C9442000C9442000C9442000C94420048
:100030000C9442000C9442000C9442000C94420038
:100040000C9442000C9442000C9442000C94420028
:100050000C9442000C9442000C9442000C94420018
:100060000C9442000C9442000C9442000C94420008
:1000700011241FBECFEFD4E0DEBFCDBF0E944F00E2
:100080000C9497000C94000018BA83B3813021F4CB
:1000900080B38F7090E0089580E190E00895CF9351
:1000A000DF93CDB7DEB764970FB6F894DEBF0FBE0F
:1000B000CDBFFE01319684E1DF011D928A95E9F7FB
:1000C00081E3898382E38A8383E38B8381E48C8366
:1000D00084E38D8385E38E8386E38F8382E4888740
:1000E00087E3898788E38A8789E38B8783E48C8722
:1000F0008AE28D8780E38E8783E28F8784E4888B12
:1001000080EF81BB8FEF8ABB14BA81E087BB8989FE
:100110008BBB0E94440080319105D9F3E1E0F0E00F
:10012000EC0FFD1FE80FF91F80818BBBF2CFF89415
:02013000FFCFFF
:00000001FF
