S00E00006C61623351332E7372656330
S11300000C9438000C9442000C9442000C9442006E
S11300100C9442000C9442000C9442000C94420054
S11300200C9442000C9442000C9442000C94420044
S11300300C9442000C9442000C9442000C94420034
S11300400C9442000C9442000C9442000C94420024
S11300500C9442000C9442000C9442000C94420014
S11300600C9442000C9442000C9442000C94420004
S113007011241FBECFEFD4E0DEBFCDBF0E944400E9
S11300800C9457000C9400008FEF8ABB17BA90E0D1
S113009086B3813051F49F5F2FEB37E289E0215022
S11300A030408040E1F700C000009BBBF1CFF894E2
S10500B0FFCF7C
S9030000FC
