S00C00006C6162332E73726563B6
S11300000C9438000C9442000C9442000C9442006E
S11300100C9442000C9442000C9442000C94420054
S11300200C9442000C9442000C9442000C94420044
S11300300C9442000C9442000C9442000C94420034
S11300400C9442000C9442000C9442000C94420024
S11300500C9442000C9442000C9442000C94420014
S11300600C9442000C9442000C9442000C94420004
S113007011241FBECFEFD4E0DEBFCDBF0E944400E9
S11300800C944A000C9400008FEF8ABB17BA86B315
S10B00908BBBFDCFF894FFCFF8
S9030000FC
