S00D00006C616238512E737265635F
S11300000C9438000C9442000C9442000C9442006E
S11300100C9442000C9442000C9442000C94420054
S11300200C9442000C9442000C9442000C94420044
S11300300C9442000C9442000C9442000C94420034
S11300400C9442000C9442000C9442000C94420024
S11300500C9442000C9442000C9442000C94420014
S11300600C9442000C9442000C9442000C94420004
S113007011241FBECFEFD4E0DEBFCDBF0E944F00DE
S11300800C9497000C94000018BA83B3813021F4C7
S113009080B38F7090E0089580E190E00895CF934D
S11300A0DF93CDB7DEB764970FB6F894DEBF0FBE0B
S11300B0CDBFFE01319684E1DF011D928A95E9F7F7
S11300C081E6898382E68A8383E68B8384E68C8354
S11300D085E68D8386E68E8387E68F8388E6888728
S11300E089E689878AE68A878BE68B878CE68C8704
S11300F08DE68D878EE68E878FE68F8780E7888BE7
S113010080EF81BB8FEF8ABB14BA82E087BB8989F9
S11301108BBB0E94440080319105D9F3E1E0F0E00B
S1130120EC0FFD1FE80FF91F80818BBBF2CFF89411
S1050130FFCFFB
S9030000FC
