:100000000C9438000C9442000C9442000C94420072
:100010000C9442000C9442000C9442000C94420058
:100020000C9442000C9442000C9442000C94420048
:100030000C9442000C9442000C9442000C94420038
:100040000C9442000C9442000C9442000C94420028
:100050000C9442000C9442000C9442000C94420018
:100060000C9442000C9442000C9442000C94420008
:1000700011241FBECFEFD4E0DEBFCDBF0E944400ED
:100080000C9465000C94000081B3826081BB81B345
:100090008E7F81BB82B3816082BB1ABA10BC85E0BF
:1000A00089B988E08AB98EE880BDC899FECF5D9B8A
:1000B000FECF80EF8CB92FE38DE093E0215080409C
:0E00C0009040E1F700C00000F0CFF894FFCFB1
:00000001FF
